:100000000C942A000C9447000C9447000C94470071
:100010000C9447000C9447000C9447000C943D0648
:100020000C9447000C9447000C9447000C94470034
:100030000C9447000C9447000C9447000C94470024
:100040000C9447000C9447000C9447000C94470014
:100050000C94470011241FBECFE5D8E0DEBFCDBF12
:1000600011E0A8E6B1E001C01D92AC37B107E1F79D
:1000700011E0A0E6B0E0E6EFFDE002C005900D92D1
:10008000A836B107D9F70E9415050C94F9060C940F
:100090000000EF92FF920F931F937B018C0120E0F1
:1000A00030E040E05FE40E941F0288238CF0C8012A
:1000B000B70120E030E040E05FE40E94C1010E940F
:1000C0004F029B01AC01205030404040504806C0D8
:1000D000C801B7010E944F029B01AC01B901CA01DE
:1000E0001F910F91FF90EF900895A0E0B0E0EBE733
:1000F000F0E00C94C206DC012B01FA019C919230D5
:1001000008F439C1EB018881823008F433C194309E
:1001100069F4843009F02FC111969C91119789815F
:10012000981709F428C1A0E6B0E025C1843009F48D
:1001300021C18230A9F4923009F01DC19A01AD01AC
:1001400088E0EA010990AE01E90109929E0181501F
:10015000C1F7E201898111969C918923818308C1AD
:10016000923009F407C112962D903C901397EB0141
:100170008A819B811496AD90BD90CD90DC901797AD
:10018000EC80FD800E811F819101281B390BB90184
:1001900037FF04C066277727621B730B6032710537
:1001A0000CF061C0121613066CF537014801062EDB
:1001B00004C096948794779467940A94D2F721E0C8
:1001C00030E040E050E004C0220F331F441F551FB1
:1001D0006A95D2F721503040404050402E213F21B7
:1001E00040235123211531054105510521F021E01E
:1001F00030E040E050E079018A01E628F72808293C
:1002000019293CC0232BD1F1260E371E350146019A
:10021000062E04C096948794779467940A94D2F734
:1002200021E030E040E050E004C0220F331F441FC3
:10023000551F6A95D2F721503040404050402A2146
:100240003B214C215D21211531054105510521F04E
:1002500021E030E040E050E059016A01A628B728CB
:10026000C828D9280BC0821593052CF01C01AA249C
:10027000BB24650103C0EE24FF24870111969C91E5
:10028000D20111968C91981709F445C0992339F041
:10029000A80197012A193B094C095D0906C0A6016E
:1002A00095012E193F09400B510B57FD08C01182D3
:1002B0003382228224833583468357831DC081E0A5
:1002C00081833382228288279927DC01821B930B4A
:1002D000A40BB50B84839583A683B7830DC0220F2F
:1002E000331F441F551F24833583468357838281E0
:1002F000938101979383828324813581468157813D
:10030000DA01C9010197A109B1098F5F9F4FAF4F72
:10031000BF4328F30BC0918333822282EA0CFB1C7B
:100320000C1D1D1DE482F5820683178383E0808304
:10033000248135814681578157FF1AC0C901AA27F8
:1003400097FDA095BA2F81709070A070B0705695EF
:10035000479537952795822B932BA42BB52B848318
:100360009583A683B7838281938101969383828349
:10037000DF0101C0D201CD01CDB7DEB7E2E10C94BF
:10038000DE06A0E2B0E0E7ECF1E00C94CE06698373
:100390007A838B839C832D833E834F835887E9E048
:1003A000EE2EF12CEC0EFD1ECE010196B7010E943F
:1003B00040048E010F5E1F4FCE010596B8010E94CA
:1003C00040048A8991E089278A8BC701B801AE0170
:1003D000475E5F4F0E9475000E946B03A096E6E0A7
:1003E0000C94EA06A0E2B0E0E8EFF1E00C94CE064F
:1003F00069837A838B839C832D833E834F835887C5
:10040000F9E0EF2EF12CEC0EFD1ECE010196B701A6
:100410000E9440048E010F5E1F4FCE010596B80169
:100420000E944004C701B801AE01475E5F4F0E94C1
:1004300075000E946B03A096E6E00C94EA06A8E122
:10044000B0E0E5E2F2E00C94CE0669837A838B8318
:100450009C832D833E834F83588789E0E82EF12CBF
:10046000EC0EFD1ECE010196B7010E9440048E01E4
:100470000F5E1F4FCE010596B8010E94400489858A
:10048000823040F08989823028F0C701B8010E948B
:10049000B80401C08FEF6896E6E00C94EA06ACE081
:1004A000B0E0E5E5F2E00C94D20669837A838B83B1
:1004B0009C83CE010196BE016B5F7F4F0E9440047A
:1004C0008D81823061F1823050F1843021F48E814F
:1004D000882351F12EC02F81388537FD20C06E81D1
:1004E0002F3131051CF06623F9F023C08EE190E036
:1004F000821B930B29853A854B855C8504C05695F4
:100500004795379527958A95D2F76623B1F0509590
:100510004095309521953F4F4F4F5F4F0EC020E0E3
:1005200030E040E050E009C02FEF3FEF4FEF5FE7D2
:1005300004C020E030E040E050E8B901CA012C9648
:10054000E2E00C94EE06A8E0B0E0E9EAF2E00C94F8
:10055000CA067B018C01611571058105910519F4AD
:1005600082E0898360C083E089838EE1C82ED12C2C
:10057000DC82CB82ED82FE820F831887C801B7012F
:100580000E941C03FC013197F7FF3BC02227332751
:100590002E1B3F0B57016801022E04C0D694C7944E
:1005A000B794A7940A94D2F740E050E060E070E07E
:1005B00081E090E0A0E0B0E004C0880F991FAA1F7E
:1005C000BB1F2A95D2F70197A109B1098E219F215E
:1005D000A023B1230097A105B10521F041E050E02F
:1005E00060E070E04A295B296C297D294D835E8398
:1005F0006F8378878EE190E08E1B9F0B9C838B83AB
:1006000012C0309781F00E2E04C0EE0CFF1C001FAC
:10061000111F0A94D2F7ED82FE820F831887CE1A3B
:10062000DF0ADC82CB821A82CE0101960E946B0324
:100630002896EAE00C94E606EF92FF920F931F9340
:100640007B018C0180E0E81680E0F80681E0080775
:1006500080E0180788F48FEFE816F1040105110512
:1006600031F028F088E090E0A0E0B0E017C080E032
:1006700090E0A0E0B0E012C080E0E81680E0F8066C
:1006800080E0080781E0180728F088E190E0A0E00A
:10069000B0E004C080E190E0A0E0B0E020E230E013
:1006A00040E050E0281B390B4A0B5B0B04C0169549
:1006B0000795F794E7948A95D2F7F701E859FF4F29
:1006C0008081281B310941095109C9011F910F91EE
:1006D000FF90EF900895DF92EF92FF920F931F9398
:1006E000FC01E480F58006811781D1808081823011
:1006F00048F480E090E0A0E1B0E0E82AF92A0A2B73
:100700001B2BA5C0843009F49FC0823021F4EE2455
:10071000FF24870105C0E114F1040105110519F456
:10072000E0E0F0E096C0628173819FEF6238790764
:100730000CF05BC022E83FEF261B370B2A31310556
:100740002CF020E030E040E050E02AC0B801A701E2
:10075000022E04C076956795579547950A94D2F76F
:1007600081E090E0A0E0B0E004C0880F991FAA1FCC
:10077000BB1F2A95D2F70197A109B1098E219F21AC
:10078000A023B1230097A105B10521F081E090E0FD
:10079000A0E0B0E09A01AB01282B392B4A2B5B2B50
:1007A000DA01C9018F779070A070B0708034910524
:1007B000A105B10539F427FF09C0205C3F4F4F4F19
:1007C0005F4F04C0215C3F4F4F4F5F4FE0E0F0E0D0
:1007D0002030A0E03A07A0E04A07A0E45A0710F052
:1007E000E1E0F0E079018A0127C06038710564F525
:1007F000FB01E158FF4FD801C7018F779070A070BF
:10080000B07080349105A105B10539F4E7FE0DC043
:1008100080E490E0A0E0B0E004C08FE390E0A0E0CE
:10082000B0E0E80EF91E0A1F1B1F17FF05C0169542
:100830000795F794E794319687E016950795F79416
:10084000E7948A95D1F705C0EE24FF248701EFEFE6
:10085000F0E06E2F679566276795902F9F77D79466
:10086000DD24D7948E2F8695492F462B582F5D294E
:10087000B701CA011F910F91FF90EF90DF9008958B
:10088000FC01DB01408151812281622F6F7770E092
:10089000221F2227221F9381892F880F822B282F26
:1008A00030E0991F9927991F11969C931197211554
:1008B0003105A9F5411551056105710511F482E075
:1008C00037C082E89FEF13969C938E9312979A01FC
:1008D000AB0167E0220F331F441F551F6A95D1F704
:1008E00083E08C930DC0220F331F441F551F1296B7
:1008F0008D919C911397019713969C938E931297C9
:10090000203080E0380780E0480780E4580758F33B
:1009100014962D933D934D935C93179708952F3F15
:10092000310579F4411551056105710519F484E02B
:100930008C93089564FF03C081E08C9312C01C92D5
:1009400010C02F57304013963C932E93129783E09C
:100950008C9387E0440F551F661F771F8A95D1F748
:10096000706414964D935D936D937C9317970895DF
:100970001F93DC01FB019C91923008F447C08081F9
:10098000823008F443C0943051F411961C918430A5
:1009900099F58181682F70E0611B71093FC0843037
:1009A00021F0923031F48230B9F18181882389F1CC
:1009B0002DC011961C9111978230F1F0818118178A
:1009C000D9F412962D913C911397828193818217CD
:1009D000930794F028173907BCF014968D919D91D8
:1009E0000D90BC91A02D2481358146815781281717
:1009F00039074A075B0718F4112341F00AC0821730
:100A00009307A407B50740F4112319F061E070E0E3
:100A100005C06FEF7FEF02C060E070E0CB011F9177
:100A20000895089508950895089580E284BBD69AA4
:100A30000E947E060E94F20581E195E00E94510528
:100A400082E195E00E94560583E195E00E945B05F6
:100A500084E195E00E94600583E395E00E946505CE
:100A60000E94ED05FFCF83E00E9466066093680157
:100A70007093690180936A0190936B018091680182
:100A800090916901A0916A01B0916B014E97A10507
:100A9000B10510F4AD9A08958BB390E489278BBB10
:100AA0000895909373018093720108959093750156
:100AB000809374010895909377018093760108954F
:100AC0009093790180937801089590937B018093AE
:100AD0007A01089580916C0190916D01A0916E0151
:100AE000B0916F010196A11DB11D80936C0190938F
:100AF0006D01A0936E01B0936F0180916C01909194
:100B00006D01A0916E01B0916F0180FD05C0E09173
:100B10007201F0917301099560916C0170916D0102
:100B200080916E0190916F0125E030E040E050E04F
:100B30000E94A006611571058105910529F4E091D7
:100B40007401F0917501099560916C0170916D01CE
:100B500080916E0190916F012AE030E040E050E01A
:100B60000E94A006611571058105910529F4E091A7
:100B70007601F0917701099560916C0170916D019A
:100B800080916E0190916F0124E630E040E050E0EA
:100B90000E94A006611571058105910529F4E09177
:100BA0007801F0917901099560916C0170916D0166
:100BB00080916E0190916F0128EE33E040E050E0AB
:100BC0000E94A006611571058105910529F4E09147
:100BD0007A01F0917B010995089588EE93E00E94D7
:100BE000220608950E9411068AE695E00E943806C2
:100BF000089580E487B986E886B98FB780688FBF8B
:100C0000089597B1907E97B997B18770892B87B96E
:100C1000369A089564B175B180E090E00E94A30215
:100C200008958CE08FBD88E08EBD1BBC1ABC19BC3A
:100C300018BC17BC16BC1DBC1CBC80E189BF80E879
:100C40008FBF08952EB523602EBD23E0969587951E
:100C50002A95E1F79BBD8ABD08958EB5887F8EBD2C
:100C600008952CB53DB5C90108951DBC1CBC08955F
:100C7000909371018093700108951F920F920FB6A7
:100C80000F9211242F933F934F935F936F937F9312
:100C90008F939F93AF93BF93EF93FF93E091700176
:100CA000F0917101309709F00995FF91EF91BF9193
:100CB000AF919F918F917F916F915F914F913F91F4
:100CC0002F910F900FBE0F901F9018950E94010654
:100CD0000E940A060E9449009B01AC01CA0124EF50
:100CE00031E040E050E00E9481062FEF33E040E029
:100CF00050E00E94A006CA01B90108950E94F905BA
:100D00000895629FD001739FF001829FE00DF11D55
:100D1000649FE00DF11D929FF00D839FF00D749F75
:100D2000F00D659FF00D9927729FB00DE11DF91F21
:100D3000639FB00DE11DF91FBD01CF01112408957E
:100D4000A1E21A2EAA1BBB1BFD010DC0AA1FBB1FCF
:100D5000EE1FFF1FA217B307E407F50720F0A21B41
:100D6000B30BE40BF50B661F771F881F991F1A94AE
:100D700069F760957095809590959B01AC01BD01D8
:100D8000CF0108952F923F924F925F926F927F9280
:100D90008F929F92AF92BF92CF92DF92EF92FF928B
:100DA0000F931F93CF93DF93CDB7DEB7CA1BDB0B37
:100DB0000FB6F894DEBF0FBECDBF09942A883988DC
:100DC00048885F846E847D848C849B84AA84B984E3
:100DD000C884DF80EE80FD800C811B81AA81B981EF
:100DE000CE0FD11D0FB6F894DEBF0FBECDBFED0103
:060DF0000895F894FFCF06
:100DF60000000000000000000001020203030303DC
:100E06000404040404040404050505050505050594
:100E16000505050505050505060606060606060674
:100E2600060606060606060606060606060606065C
:100E36000606060606060606070707070707070744
:100E4600070707070707070707070707070707072C
:100E5600070707070707070707070707070707071C
:100E6600070707070707070707070707070707070C
:100E760007070707070707070808080808080808F4
:100E860008080808080808080808080808080808DC
:100E960008080808080808080808080808080808CC
:100EA60008080808080808080808080808080808BC
:100EB60008080808080808080808080808080808AC
:100EC600080808080808080808080808080808089C
:100ED600080808080808080808080808080808088C
:100EE600080808080808080808080808080808087C
:080EF6000808080808080808B4
:00000001FF
